{
  "contractName": "Certifier",
  "abi": [
    {
      "constant": true,
      "inputs": [],
      "name": "owner",
      "outputs": [
        {
          "name": "",
          "type": "address"
        }
      ],
      "payable": false,
      "stateMutability": "view",
      "type": "function"
    },
    {
      "constant": true,
      "inputs": [
        {
          "name": "",
          "type": "bytes32"
        }
      ],
      "name": "courses",
      "outputs": [
        {
          "name": "name",
          "type": "string"
        },
        {
          "name": "cost",
          "type": "uint256"
        },
        {
          "name": "duration",
          "type": "uint256"
        },
        {
          "name": "threshold",
          "type": "uint256"
        }
      ],
      "payable": false,
      "stateMutability": "view",
      "type": "function"
    },
    {
      "inputs": [],
      "payable": false,
      "stateMutability": "nonpayable",
      "type": "constructor"
    },
    {
      "constant": true,
      "inputs": [],
      "name": "isOwner",
      "outputs": [
        {
          "name": "",
          "type": "bool"
        }
      ],
      "payable": false,
      "stateMutability": "view",
      "type": "function"
    },
    {
      "constant": false,
      "inputs": [
        {
          "name": "_code",
          "type": "bytes32"
        },
        {
          "name": "_name",
          "type": "string"
        },
        {
          "name": "_cost",
          "type": "uint256"
        },
        {
          "name": "_duration",
          "type": "uint256"
        },
        {
          "name": "_threshold",
          "type": "uint256"
        },
        {
          "name": "_codes",
          "type": "bytes32[]"
        }
      ],
      "name": "addCourse",
      "outputs": [],
      "payable": false,
      "stateMutability": "nonpayable",
      "type": "function"
    },
    {
      "constant": true,
      "inputs": [
        {
          "name": "_code",
          "type": "bytes32"
        }
      ],
      "name": "getCourse",
      "outputs": [
        {
          "name": "",
          "type": "string"
        },
        {
          "name": "",
          "type": "uint256"
        },
        {
          "name": "",
          "type": "uint256"
        },
        {
          "name": "",
          "type": "uint256"
        },
        {
          "name": "",
          "type": "bytes32[]"
        }
      ],
      "payable": false,
      "stateMutability": "view",
      "type": "function"
    },
    {
      "constant": false,
      "inputs": [
        {
          "name": "_code",
          "type": "bytes32"
        },
        {
          "name": "_fname",
          "type": "string"
        },
        {
          "name": "_lname",
          "type": "string"
        },
        {
          "name": "_age",
          "type": "uint256"
        },
        {
          "name": "_email",
          "type": "string"
        }
      ],
      "name": "subscribe",
      "outputs": [],
      "payable": true,
      "stateMutability": "payable",
      "type": "function"
    },
    {
      "constant": false,
      "inputs": [
        {
          "name": "_course_code",
          "type": "bytes32"
        },
        {
          "name": "_session_code",
          "type": "bytes32"
        },
        {
          "name": "_name",
          "type": "string"
        },
        {
          "name": "_date",
          "type": "uint256"
        },
        {
          "name": "_subjects",
          "type": "bytes32[]"
        },
        {
          "name": "_assitance",
          "type": "bytes32[]"
        }
      ],
      "name": "addSession",
      "outputs": [],
      "payable": false,
      "stateMutability": "nonpayable",
      "type": "function"
    }
  ],
  "bytecode": "0x608060405234801561001057600080fd5b50336000806101000a81548173ffffffffffffffffffffffffffffffffffffffff021916908373ffffffffffffffffffffffffffffffffffffffff160217905550610dd5806100606000396000f300608060405260043610610083576000357c0100000000000000000000000000000000000000000000000000000000900463ffffffff1680638da5cb5b146100885780638f32d59b146100df578063987b57b91461010e578063ad00be7b14610215578063bd11bc511461032a578063c4b887511461042a578063fdf8aad3146104e9575b600080fd5b34801561009457600080fd5b5061009d6105c1565b604051808273ffffffffffffffffffffffffffffffffffffffff1673ffffffffffffffffffffffffffffffffffffffff16815260200191505060405180910390f35b3480156100eb57600080fd5b506100f46105e6565b604051808215151515815260200191505060405180910390f35b34801561011a57600080fd5b5061013d600480360381019080803560001916906020019092919050505061063d565b604051808060200186815260200185815260200184815260200180602001838103835288818151815260200191508051906020019080838360005b83811015610193578082015181840152602081019050610178565b50505050905090810190601f1680156101c05780820380516001836020036101000a031916815260200191505b50838103825284818151815260200191508051906020019060200280838360005b838110156101fc5780820151818401526020810190506101e1565b5050505090500197505050505050505060405180910390f35b34801561022157600080fd5b5061032860048036038101908080356000191690602001909291908035600019169060200190929190803590602001908201803590602001908080601f01602080910402602001604051908101604052809392919081815260200183838082843782019150505050505091929192908035906020019092919080359060200190820180359060200190808060200260200160405190810160405280939291908181526020018383602002808284378201915050505050509192919290803590602001908201803590602001908080602002602001604051908101604052809392919081815260200183836020028082843782019150505050505091929192905050506107dd565b005b6104286004803603810190808035600019169060200190929190803590602001908201803590602001908080601f0160208091040260200160405190810160405280939291908181526020018383808284378201915050505050509192919290803590602001908201803590602001908080601f016020809104026020016040519081016040528093929190818152602001838380828437820191505050505050919291929080359060200190929190803590602001908201803590602001908080601f0160208091040260200160405190810160405280939291908181526020018383808284378201915050505050509192919290505050610903565b005b34801561043657600080fd5b506104596004803603810190808035600019169060200190929190505050610ac3565b6040518080602001858152602001848152602001838152602001828103825286818151815260200191508051906020019080838360005b838110156104ab578082015181840152602081019050610490565b50505050905090810190601f1680156104d85780820380516001836020036101000a031916815260200191505b509550505050505060405180910390f35b3480156104f557600080fd5b506105bf6004803603810190808035600019169060200190929190803590602001908201803590602001908080601f016020809104026020016040519081016040528093929190818152602001838380828437820191505050505050919291929080359060200190929190803590602001909291908035906020019092919080359060200190820180359060200190808060200260200160405190810160405280939291908181526020018383602002808284378201915050505050509192919290505050610b8b565b005b6000809054906101000a900473ffffffffffffffffffffffffffffffffffffffff1681565b60008060009054906101000a900473ffffffffffffffffffffffffffffffffffffffff1673ffffffffffffffffffffffffffffffffffffffff163373ffffffffffffffffffffffffffffffffffffffff1614905090565b60606000806000606060008060009054906101000a900473ffffffffffffffffffffffffffffffffffffffff1673ffffffffffffffffffffffffffffffffffffffff163373ffffffffffffffffffffffffffffffffffffffff161415156106a357600080fd5b60016000886000191660001916815260200190815260200160002090508060000181600101548260020154836003015484600401848054600181600116156101000203166002900480601f01602080910402602001604051908101604052809291908181526020018280546001816001161561010002031660029004801561076c5780601f106107415761010080835404028352916020019161076c565b820191906000526020600020905b81548152906001019060200180831161074f57829003601f168201915b50505050509450808054806020026020016040519081016040528092919081815260200182805480156107c257602002820191906000526020600020905b815460001916815260200190600101908083116107aa575b50505050509050955095509550955095505091939590929450565b60008060009054906101000a900473ffffffffffffffffffffffffffffffffffffffff1673ffffffffffffffffffffffffffffffffffffffff163373ffffffffffffffffffffffffffffffffffffffff1614151561083a57600080fd5b600160008860001916600019168152602001908152602001600020905060806040519081016040528086815260200185815260200184815260200183815250816006016000886000191660001916815260200190815260200160002060008201518160000190805190602001906108b2929190610c8c565b506020820151816001015560408201518160020190805190602001906108d9929190610d0c565b5060608201518160030190805190602001906108f6929190610d0c565b5090505050505050505050565b60006729a2241af62c000034141515610984576040517f08c379a00000000000000000000000000000000000000000000000000000000081526004018080602001828103825260208152602001807f596f7520686176656e27742073656e742065786163746c79203320657468657281525060200191505060405180910390fd5b600160008760001916600019168152602001908152602001600020905060a06040519081016040528086815260200185815260200184815260200183815260200160006040519080825280602002602001820160405280156109f55781602001602082028038833980820191505090505b508152508160050160003373ffffffffffffffffffffffffffffffffffffffff1673ffffffffffffffffffffffffffffffffffffffff1681526020019081526020016000206000820151816000019080519060200190610a56929190610c8c565b506020820151816001019080519060200190610a73929190610c8c565b50604082015181600201556060820151816003019080519060200190610a9a929190610c8c565b506080820151816004019080519060200190610ab7929190610d0c565b50905050505050505050565b6001602052806000526040600020600091509050806000018054600181600116156101000203166002900480601f016020809104026020016040519081016040528092919081815260200182805460018160011615610100020316600290048015610b6f5780601f10610b4457610100808354040283529160200191610b6f565b820191906000526020600020905b815481529060010190602001808311610b5257829003601f168201915b5050505050908060010154908060020154908060030154905084565b6000809054906101000a900473ffffffffffffffffffffffffffffffffffffffff1673ffffffffffffffffffffffffffffffffffffffff163373ffffffffffffffffffffffffffffffffffffffff16141515610be657600080fd5b60a060405190810160405280868152602001858152602001848152602001838152602001828152506001600088600019166000191681526020019081526020016000206000820151816000019080519060200190610c45929190610c8c565b506020820151816001015560408201518160020155606082015181600301556080820151816004019080519060200190610c80929190610d0c565b50905050505050505050565b828054600181600116156101000203166002900490600052602060002090601f016020900481019282601f10610ccd57805160ff1916838001178555610cfb565b82800160010185558215610cfb579182015b82811115610cfa578251825591602001919060010190610cdf565b5b509050610d089190610d5f565b5090565b828054828255906000526020600020908101928215610d4e579160200282015b82811115610d4d578251829060001916905591602001919060010190610d2c565b5b509050610d5b9190610d84565b5090565b610d8191905b80821115610d7d576000816000905550600101610d65565b5090565b90565b610da691905b80821115610da2576000816000905550600101610d8a565b5090565b905600a165627a7a723058209d79972c41d4c7fe8a67145fbb3e09ca56bac43595c60f36955af0eb0baafef50029",
  "source": "pragma solidity ^0.4.23;\n\ncontract Certifier {\n    address public owner;\n    mapping(bytes32 => Course) public courses;\n\n\n    struct Course {\n        string name;\n        uint  cost;\n        uint duration;\n        uint threshold;\n        bytes32[] codes;\n        mapping(address => Student) students;\n        mapping(bytes32 => Session) sessions;\n    }\n\n    struct Student {\n        string fname;\n        string lname;\n        uint age;\n        string email;\n        bytes32[] codes;\n    }\n\n    struct Session {\n        string name;\n        uint date;\n        bytes32[] subjects;\n        bytes32[] assistance;\n    }\n\n    constructor() public {\n        owner = msg.sender;\n    }\n\n    modifier restricted() {\n        require (msg.sender == owner) ;\n        _;\n    }\n\n    function isOwner() public view returns(bool) {\n        return msg.sender == owner;\n    }\n\n    function addCourse(\n        bytes32 _code,\n        string _name,\n        uint  _cost,\n        uint _duration,\n        uint _threshold,\n        bytes32[] _codes) public restricted {\n            courses[_code] = Course({\n                name: _name,\n                cost: _cost,\n                duration: _duration,\n                threshold: _threshold,\n                codes: _codes\n        });\n    }\n\n    function getCourse(bytes32 _code) public restricted view returns(string, uint, uint, uint, bytes32[]){\n        Course storage course = courses[_code];\n        return(course.name, course.cost, course.duration, course.threshold, course.codes);\n    }\n\n    function subscribe(\n        bytes32 _code,\n        string _fname,\n        string _lname,\n        uint _age,\n        string _email\n    ) public payable{\n        require(msg.value == 3 ether, \"You haven't sent exactly 3 ether\" );\n        Course storage course = courses[_code];\n        course.students[msg.sender] = Student({\n            fname: _fname,\n            lname: _lname,\n            age: _age,\n            email: _email,\n            codes: new bytes32[](0)\n        });\n    }\n\n    function addSession(\n        bytes32 _course_code,\n        bytes32 _session_code,\n        string _name,\n        uint _date,\n        bytes32[] _subjects,\n        bytes32[] _assitance) public restricted{\n        Course storage course = courses[_course_code];\n        course.sessions[_session_code] = Session({name: _name, date: _date, subjects: _subjects, assistance: _assitance});\n    }\n}\n",
  "sourcePath": "/home/andrescajamarca/blockchain_course/certifier/contracts/Certifier.sol",
  "compiler": {
    "name": "solc",
    "version": "0.4.24+commit.e67f0147.Emscripten.clang"
  },
  "schemaVersion": "2.0.1",
  "updatedAt": "2018-10-13T14:31:56.910Z"
}