{
  "contractName": "Certifier",
  "abi": [
    {
      "constant": true,
      "inputs": [
        {
          "name": "",
          "type": "bytes32"
        }
      ],
      "name": "sessions",
      "outputs": [
        {
          "name": "name",
          "type": "string"
        },
        {
          "name": "date",
          "type": "uint256"
        }
      ],
      "payable": false,
      "stateMutability": "view",
      "type": "function"
    },
    {
      "constant": true,
      "inputs": [],
      "name": "owner",
      "outputs": [
        {
          "name": "",
          "type": "address"
        }
      ],
      "payable": false,
      "stateMutability": "view",
      "type": "function"
    },
    {
      "constant": true,
      "inputs": [
        {
          "name": "",
          "type": "bytes32"
        }
      ],
      "name": "courses",
      "outputs": [
        {
          "name": "name",
          "type": "string"
        },
        {
          "name": "cost",
          "type": "uint256"
        },
        {
          "name": "duration",
          "type": "uint256"
        },
        {
          "name": "threshold",
          "type": "uint256"
        }
      ],
      "payable": false,
      "stateMutability": "view",
      "type": "function"
    },
    {
      "inputs": [],
      "payable": false,
      "stateMutability": "nonpayable",
      "type": "constructor"
    },
    {
      "constant": false,
      "inputs": [
        {
          "name": "_code",
          "type": "bytes32"
        },
        {
          "name": "_name",
          "type": "string"
        },
        {
          "name": "_cost",
          "type": "uint256"
        },
        {
          "name": "_duration",
          "type": "uint256"
        },
        {
          "name": "_threshold",
          "type": "uint256"
        },
        {
          "name": "_codes",
          "type": "bytes32[]"
        },
        {
          "name": "_sessions",
          "type": "bytes32[]"
        }
      ],
      "name": "addCourse",
      "outputs": [],
      "payable": false,
      "stateMutability": "nonpayable",
      "type": "function"
    },
    {
      "constant": true,
      "inputs": [
        {
          "name": "_code",
          "type": "bytes32"
        }
      ],
      "name": "getCourse",
      "outputs": [
        {
          "name": "",
          "type": "string"
        },
        {
          "name": "",
          "type": "uint256"
        },
        {
          "name": "",
          "type": "uint256"
        },
        {
          "name": "",
          "type": "uint256"
        },
        {
          "name": "",
          "type": "bytes32[]"
        },
        {
          "name": "",
          "type": "bytes32[]"
        }
      ],
      "payable": false,
      "stateMutability": "view",
      "type": "function"
    },
    {
      "constant": false,
      "inputs": [
        {
          "name": "_code",
          "type": "bytes32"
        },
        {
          "name": "_fname",
          "type": "string"
        },
        {
          "name": "_lname",
          "type": "string"
        },
        {
          "name": "_age",
          "type": "uint256"
        },
        {
          "name": "_email",
          "type": "string"
        }
      ],
      "name": "subscribe",
      "outputs": [],
      "payable": true,
      "stateMutability": "payable",
      "type": "function"
    },
    {
      "constant": false,
      "inputs": [
        {
          "name": "_code",
          "type": "bytes32"
        },
        {
          "name": "_name",
          "type": "string"
        },
        {
          "name": "_date",
          "type": "uint256"
        },
        {
          "name": "_subjects",
          "type": "bytes32[]"
        }
      ],
      "name": "addSession",
      "outputs": [],
      "payable": false,
      "stateMutability": "nonpayable",
      "type": "function"
    },
    {
      "constant": true,
      "inputs": [
        {
          "name": "_code",
          "type": "bytes32"
        }
      ],
      "name": "getSession",
      "outputs": [
        {
          "name": "",
          "type": "string"
        },
        {
          "name": "",
          "type": "uint256"
        },
        {
          "name": "",
          "type": "bytes32[]"
        }
      ],
      "payable": false,
      "stateMutability": "view",
      "type": "function"
    },
    {
      "constant": false,
      "inputs": [
        {
          "name": "_course_code",
          "type": "bytes32"
        },
        {
          "name": "_session_code",
          "type": "bytes32"
        }
      ],
      "name": "addSessionToCourse",
      "outputs": [],
      "payable": false,
      "stateMutability": "nonpayable",
      "type": "function"
    }
  ],
  "bytecode": "0x608060405234801561001057600080fd5b50336000806101000a81548173ffffffffffffffffffffffffffffffffffffffff021916908373ffffffffffffffffffffffffffffffffffffffff1602179055506112be806100606000396000f300608060405260043610610099576000357c0100000000000000000000000000000000000000000000000000000000900463ffffffff16806339b240bd1461009e57806362f62b9e146101975780637dbd28321461025b5780638b41e7ee1461030c5780638da5cb5b1461034b57806392f6d0dc146103a2578063987b57b9146104bd578063bd11bc511461060c578063c4b887511461070c575b600080fd5b3480156100aa57600080fd5b506100cd60048036038101908080356000191690602001909291905050506107cb565b604051808060200184815260200180602001838103835286818151815260200191508051906020019080838360005b838110156101175780820151818401526020810190506100fc565b50505050905090810190601f1680156101445780820380516001836020036101000a031916815260200191505b50838103825284818151815260200191508051906020019060200280838360005b83811015610180578082015181840152602081019050610165565b505050509050019550505050505060405180910390f35b3480156101a357600080fd5b506102596004803603810190808035600019169060200190929190803590602001908201803590602001908080601f01602080910402602001604051908101604052809392919081815260200183838082843782019150505050505091929192908035906020019092919080359060200190820180359060200190808060200260200160405190810160405280939291908181526020018383602002808284378201915050505050509192919290505050610958565b005b34801561026757600080fd5b5061028a6004803603810190808035600019169060200190929190505050610a37565b6040518080602001838152602001828103825284818151815260200191508051906020019080838360005b838110156102d05780820151818401526020810190506102b5565b50505050905090810190601f1680156102fd5780820380516001836020036101000a031916815260200191505b50935050505060405180910390f35b34801561031857600080fd5b5061034960048036038101908080356000191690602001909291908035600019169060200190929190505050610af3565b005b34801561035757600080fd5b50610360610ba6565b604051808273ffffffffffffffffffffffffffffffffffffffff1673ffffffffffffffffffffffffffffffffffffffff16815260200191505060405180910390f35b3480156103ae57600080fd5b506104bb6004803603810190808035600019169060200190929190803590602001908201803590602001908080601f01602080910402602001604051908101604052809392919081815260200183838082843782019150505050505091929192908035906020019092919080359060200190929190803590602001909291908035906020019082018035906020019080806020026020016040519081016040528093929190818152602001838360200280828437820191505050505050919291929080359060200190820180359060200190808060200260200160405190810160405280939291908181526020018383602002808284378201915050505050509192919290505050610bcb565b005b3480156104c957600080fd5b506104ec6004803603810190808035600019169060200190929190505050610cf0565b6040518080602001878152602001868152602001858152602001806020018060200184810384528a818151815260200191508051906020019080838360005b8381101561054657808201518184015260208101905061052b565b50505050905090810190601f1680156105735780820380516001836020036101000a031916815260200191505b50848103835286818151815260200191508051906020019060200280838360005b838110156105af578082015181840152602081019050610594565b50505050905001848103825285818151815260200191508051906020019060200280838360005b838110156105f15780820151818401526020810190506105d6565b50505050905001995050505050505050505060405180910390f35b61070a6004803603810190808035600019169060200190929190803590602001908201803590602001908080601f0160208091040260200160405190810160405280939291908181526020018383808284378201915050505050509192919290803590602001908201803590602001908080601f016020809104026020016040519081016040528093929190818152602001838380828437820191505050505050919291929080359060200190929190803590602001908201803590602001908080601f0160208091040260200160405190810160405280939291908181526020018383808284378201915050505050509192919290505050610eed565b005b34801561071857600080fd5b5061073b60048036038101908080356000191690602001909291905050506110ad565b6040518080602001858152602001848152602001838152602001828103825286818151815260200191508051906020019080838360005b8381101561078d578082015181840152602081019050610772565b50505050905090810190601f1680156107ba5780820380516001836020036101000a031916815260200191505b509550505050505060405180910390f35b60606000606060008060009054906101000a900473ffffffffffffffffffffffffffffffffffffffff1673ffffffffffffffffffffffffffffffffffffffff163373ffffffffffffffffffffffffffffffffffffffff1614151561082e57600080fd5b600260008660001916600019168152602001908152602001600020905080600001816001015482600201828054600181600116156101000203166002900480601f0160208091040260200160405190810160405280929190818152602001828054600181600116156101000203166002900480156108ed5780601f106108c2576101008083540402835291602001916108ed565b820191906000526020600020905b8154815290600101906020018083116108d057829003601f168201915b505050505092508080548060200260200160405190810160405280929190818152602001828054801561094357602002820191906000526020600020905b8154600019168152602001906001019080831161092b575b50505050509050935093509350509193909250565b6000809054906101000a900473ffffffffffffffffffffffffffffffffffffffff1673ffffffffffffffffffffffffffffffffffffffff163373ffffffffffffffffffffffffffffffffffffffff161415156109b357600080fd5b606060405190810160405280848152602001838152602001828152506002600086600019166000191681526020019081526020016000206000820151816000019080519060200190610a06929190611175565b50602082015181600101556040820151816002019080519060200190610a2d9291906111f5565b5090505050505050565b6002602052806000526040600020600091509050806000018054600181600116156101000203166002900480601f016020809104026020016040519081016040528092919081815260200182805460018160011615610100020316600290048015610ae35780601f10610ab857610100808354040283529160200191610ae3565b820191906000526020600020905b815481529060010190602001808311610ac657829003601f168201915b5050505050908060010154905082565b60008060009054906101000a900473ffffffffffffffffffffffffffffffffffffffff1673ffffffffffffffffffffffffffffffffffffffff163373ffffffffffffffffffffffffffffffffffffffff16141515610b5057600080fd5b600160008460001916600019168152602001908152602001600020905080600601829080600181540180825580915050906001820390600052602060002001600090919290919091509060001916905550505050565b6000809054906101000a900473ffffffffffffffffffffffffffffffffffffffff1681565b6000809054906101000a900473ffffffffffffffffffffffffffffffffffffffff1673ffffffffffffffffffffffffffffffffffffffff163373ffffffffffffffffffffffffffffffffffffffff16141515610c2657600080fd5b60c060405190810160405280878152602001868152602001858152602001848152602001838152602001828152506001600089600019166000191681526020019081526020016000206000820151816000019080519060200190610c8b929190611175565b506020820151816001015560408201518160020155606082015181600301556080820151816004019080519060200190610cc69291906111f5565b5060a0820151816006019080519060200190610ce39291906111f5565b5090505050505050505050565b6060600080600060608060008060009054906101000a900473ffffffffffffffffffffffffffffffffffffffff1673ffffffffffffffffffffffffffffffffffffffff163373ffffffffffffffffffffffffffffffffffffffff16141515610d5757600080fd5b6001600089600019166000191681526020019081526020016000209050806000018160010154826002015483600301548460040185600601858054600181600116156101000203166002900480601f016020809104026020016040519081016040528092919081815260200182805460018160011615610100020316600290048015610e245780601f10610df957610100808354040283529160200191610e24565b820191906000526020600020905b815481529060010190602001808311610e0757829003601f168201915b5050505050955081805480602002602001604051908101604052809291908181526020018280548015610e7a57602002820191906000526020600020905b81546000191681526020019060010190808311610e62575b5050505050915080805480602002602001604051908101604052809291908181526020018280548015610ed057602002820191906000526020600020905b81546000191681526020019060010190808311610eb8575b505050505090509650965096509650965096505091939550919395565b60006729a2241af62c000034141515610f6e576040517f08c379a00000000000000000000000000000000000000000000000000000000081526004018080602001828103825260208152602001807f596f7520686176656e27742073656e742065786163746c79203320657468657281525060200191505060405180910390fd5b600160008760001916600019168152602001908152602001600020905060a0604051908101604052808681526020018581526020018481526020018381526020016000604051908082528060200260200182016040528015610fdf5781602001602082028038833980820191505090505b508152508160050160003373ffffffffffffffffffffffffffffffffffffffff1673ffffffffffffffffffffffffffffffffffffffff1681526020019081526020016000206000820151816000019080519060200190611040929190611175565b50602082015181600101908051906020019061105d929190611175565b50604082015181600201556060820151816003019080519060200190611084929190611175565b5060808201518160040190805190602001906110a19291906111f5565b50905050505050505050565b6001602052806000526040600020600091509050806000018054600181600116156101000203166002900480601f0160208091040260200160405190810160405280929190818152602001828054600181600116156101000203166002900480156111595780601f1061112e57610100808354040283529160200191611159565b820191906000526020600020905b81548152906001019060200180831161113c57829003601f168201915b5050505050908060010154908060020154908060030154905084565b828054600181600116156101000203166002900490600052602060002090601f016020900481019282601f106111b657805160ff19168380011785556111e4565b828001600101855582156111e4579182015b828111156111e35782518255916020019190600101906111c8565b5b5090506111f19190611248565b5090565b828054828255906000526020600020908101928215611237579160200282015b82811115611236578251829060001916905591602001919060010190611215565b5b509050611244919061126d565b5090565b61126a91905b8082111561126657600081600090555060010161124e565b5090565b90565b61128f91905b8082111561128b576000816000905550600101611273565b5090565b905600a165627a7a7230582041c3a0af5d2248b8e943fed317f6c02a0a8a166405712638a9936e4ec86907db0029",
  "source": "pragma solidity ^0.4.23;\n\ncontract Certifier {\n    address public owner;\n    mapping(bytes32 => Course) public courses;\n    mapping(bytes32 => Session) public sessions;\n\n    struct Course {\n        string name;\n        uint  cost;\n        uint duration;\n        uint threshold;\n        bytes32[] codes;\n        mapping(address => Student) students;\n        bytes32[] sessions;\n    }\n\n    struct Student {\n        string fname;\n        string lname;\n        uint age;\n        string email;\n        bytes32[] codes;\n    }\n\n    struct Session {\n        string name;\n        uint date;\n        bytes32[] subjects;\n    }\n\n    constructor() public {\n        owner = msg.sender;\n    }\n\n    modifier restricted() {\n        require (msg.sender == owner) ;\n        _;\n    }\n\n    function addCourse(\n        bytes32 _code,\n        string _name,\n        uint  _cost,\n        uint _duration,\n        uint _threshold,\n        bytes32[] _codes,\n        bytes32[] _sessions) public restricted {\n            courses[_code] = Course({\n                name: _name,\n                cost: _cost,\n                duration: _duration,\n                threshold: _threshold,\n                codes: _codes,\n                sessions: _sessions\n        });\n    }\n\n    function getCourse(bytes32 _code) public restricted view returns(string, uint, uint, uint, bytes32[],bytes32[]){\n        Course storage course = courses[_code];\n        return(course.name, course.cost, course.duration, course.threshold, course.codes, course.sessions);\n    }\n\n    function subscribe(\n        bytes32 _code,\n        string _fname,\n        string _lname,\n        uint _age,\n        string _email\n    ) public payable{\n        require(msg.value == 3 ether, \"You haven't sent exactly 3 ether\" );\n        Course storage course = courses[_code];\n        course.students[msg.sender] = Student({\n            fname: _fname,\n            lname: _lname,\n            age: _age,\n            email: _email,\n            codes: new bytes32[](0)\n        });\n    }\n\n    function addSession(bytes32 _code, string _name, uint _date, bytes32[] _subjects) public restricted{\n        sessions[_code] = Session({name: _name, date: _date, subjects: _subjects});\n    }\n\n    function getSession(bytes32 _code) public restricted view returns(string, uint, bytes32[]) {\n        Session storage session = sessions[_code];\n        return(session.name, session.date, session.subjects);\n    }\n\n    function addSessionToCourse(bytes32 _course_code, bytes32 _session_code) public restricted {\n        Course storage course = courses[_course_code];\n        course.sessions.push(_session_code);\n    }\n}\n",
  "sourcePath": "/home/andrescajamarca/blockchain_course/certifier/contracts/Certifier.sol",
  "compiler": {
    "name": "solc",
    "version": "0.4.24+commit.e67f0147.Emscripten.clang"
  },
  "schemaVersion": "2.0.1",
  "updatedAt": "2018-10-12T14:47:46.444Z"
}