{
  "contractName": "Certifier",
  "abi": [
    {
      "constant": true,
      "inputs": [],
      "name": "owner",
      "outputs": [
        {
          "name": "",
          "type": "address"
        }
      ],
      "payable": false,
      "stateMutability": "view",
      "type": "function"
    },
    {
      "constant": true,
      "inputs": [
        {
          "name": "",
          "type": "bytes32"
        }
      ],
      "name": "courses",
      "outputs": [
        {
          "name": "name",
          "type": "string"
        },
        {
          "name": "cost",
          "type": "uint256"
        },
        {
          "name": "duration",
          "type": "uint256"
        },
        {
          "name": "threshold",
          "type": "uint256"
        }
      ],
      "payable": false,
      "stateMutability": "view",
      "type": "function"
    },
    {
      "inputs": [],
      "payable": false,
      "stateMutability": "nonpayable",
      "type": "constructor"
    },
    {
      "constant": false,
      "inputs": [
        {
          "name": "_code",
          "type": "bytes32"
        },
        {
          "name": "_name",
          "type": "string"
        },
        {
          "name": "_cost",
          "type": "uint256"
        },
        {
          "name": "_duration",
          "type": "uint256"
        },
        {
          "name": "_threshold",
          "type": "uint256"
        },
        {
          "name": "_codes",
          "type": "bytes32[]"
        }
      ],
      "name": "addCourse",
      "outputs": [],
      "payable": false,
      "stateMutability": "nonpayable",
      "type": "function"
    },
    {
      "constant": true,
      "inputs": [
        {
          "name": "_code",
          "type": "bytes32"
        }
      ],
      "name": "getCourse",
      "outputs": [
        {
          "name": "",
          "type": "string"
        },
        {
          "name": "",
          "type": "uint256"
        },
        {
          "name": "",
          "type": "uint256"
        },
        {
          "name": "",
          "type": "uint256"
        },
        {
          "name": "",
          "type": "bytes32[]"
        }
      ],
      "payable": false,
      "stateMutability": "view",
      "type": "function"
    },
    {
      "constant": false,
      "inputs": [
        {
          "name": "_code",
          "type": "bytes32"
        },
        {
          "name": "_fname",
          "type": "string"
        },
        {
          "name": "_lname",
          "type": "string"
        },
        {
          "name": "_age",
          "type": "uint256"
        },
        {
          "name": "_email",
          "type": "string"
        }
      ],
      "name": "subscribe",
      "outputs": [],
      "payable": true,
      "stateMutability": "payable",
      "type": "function"
    }
  ],
  "bytecode": "0x608060405234801561001057600080fd5b50336000806101000a81548173ffffffffffffffffffffffffffffffffffffffff021916908373ffffffffffffffffffffffffffffffffffffffff160217905550610afe806100606000396000f30060806040526004361061006d576000357c0100000000000000000000000000000000000000000000000000000000900463ffffffff1680638da5cb5b14610072578063987b57b9146100c9578063bd11bc51146101d0578063c4b88751146102d0578063fdf8aad31461038f575b600080fd5b34801561007e57600080fd5b50610087610467565b604051808273ffffffffffffffffffffffffffffffffffffffff1673ffffffffffffffffffffffffffffffffffffffff16815260200191505060405180910390f35b3480156100d557600080fd5b506100f8600480360381019080803560001916906020019092919050505061048c565b604051808060200186815260200185815260200184815260200180602001838103835288818151815260200191508051906020019080838360005b8381101561014e578082015181840152602081019050610133565b50505050905090810190601f16801561017b5780820380516001836020036101000a031916815260200191505b50838103825284818151815260200191508051906020019060200280838360005b838110156101b757808201518184015260208101905061019c565b5050505090500197505050505050505060405180910390f35b6102ce6004803603810190808035600019169060200190929190803590602001908201803590602001908080601f0160208091040260200160405190810160405280939291908181526020018383808284378201915050505050509192919290803590602001908201803590602001908080601f016020809104026020016040519081016040528093929190818152602001838380828437820191505050505050919291929080359060200190929190803590602001908201803590602001908080601f016020809104026020016040519081016040528093929190818152602001838380828437820191505050505050919291929050505061062c565b005b3480156102dc57600080fd5b506102ff60048036038101908080356000191690602001909291905050506107ec565b6040518080602001858152602001848152602001838152602001828103825286818151815260200191508051906020019080838360005b83811015610351578082015181840152602081019050610336565b50505050905090810190601f16801561037e5780820380516001836020036101000a031916815260200191505b509550505050505060405180910390f35b34801561039b57600080fd5b506104656004803603810190808035600019169060200190929190803590602001908201803590602001908080601f0160208091040260200160405190810160405280939291908181526020018383808284378201915050505050509192919290803590602001909291908035906020019092919080359060200190929190803590602001908201803590602001908080602002602001604051908101604052809392919081815260200183836020028082843782019150505050505091929192905050506108b4565b005b6000809054906101000a900473ffffffffffffffffffffffffffffffffffffffff1681565b60606000806000606060008060009054906101000a900473ffffffffffffffffffffffffffffffffffffffff1673ffffffffffffffffffffffffffffffffffffffff163373ffffffffffffffffffffffffffffffffffffffff161415156104f257600080fd5b60016000886000191660001916815260200190815260200160002090508060000181600101548260020154836003015484600401848054600181600116156101000203166002900480601f0160208091040260200160405190810160405280929190818152602001828054600181600116156101000203166002900480156105bb5780601f10610590576101008083540402835291602001916105bb565b820191906000526020600020905b81548152906001019060200180831161059e57829003601f168201915b505050505094508080548060200260200160405190810160405280929190818152602001828054801561061157602002820191906000526020600020905b815460001916815260200190600101908083116105f9575b50505050509050955095509550955095505091939590929450565b60006729a2241af62c0000341415156106ad576040517f08c379a00000000000000000000000000000000000000000000000000000000081526004018080602001828103825260208152602001807f596f7520686176656e27742073656e742065786163746c79203320657468657281525060200191505060405180910390fd5b600160008760001916600019168152602001908152602001600020905060a060405190810160405280868152602001858152602001848152602001838152602001600060405190808252806020026020018201604052801561071e5781602001602082028038833980820191505090505b508152508160050160003373ffffffffffffffffffffffffffffffffffffffff1673ffffffffffffffffffffffffffffffffffffffff168152602001908152602001600020600082015181600001908051906020019061077f9291906109b5565b50602082015181600101908051906020019061079c9291906109b5565b506040820151816002015560608201518160030190805190602001906107c39291906109b5565b5060808201518160040190805190602001906107e0929190610a35565b50905050505050505050565b6001602052806000526040600020600091509050806000018054600181600116156101000203166002900480601f0160208091040260200160405190810160405280929190818152602001828054600181600116156101000203166002900480156108985780601f1061086d57610100808354040283529160200191610898565b820191906000526020600020905b81548152906001019060200180831161087b57829003601f168201915b5050505050908060010154908060020154908060030154905084565b6000809054906101000a900473ffffffffffffffffffffffffffffffffffffffff1673ffffffffffffffffffffffffffffffffffffffff163373ffffffffffffffffffffffffffffffffffffffff1614151561090f57600080fd5b60a06040519081016040528086815260200185815260200184815260200183815260200182815250600160008860001916600019168152602001908152602001600020600082015181600001908051906020019061096e9291906109b5565b5060208201518160010155604082015181600201556060820151816003015560808201518160040190805190602001906109a9929190610a35565b50905050505050505050565b828054600181600116156101000203166002900490600052602060002090601f016020900481019282601f106109f657805160ff1916838001178555610a24565b82800160010185558215610a24579182015b82811115610a23578251825591602001919060010190610a08565b5b509050610a319190610a88565b5090565b828054828255906000526020600020908101928215610a77579160200282015b82811115610a76578251829060001916905591602001919060010190610a55565b5b509050610a849190610aad565b5090565b610aaa91905b80821115610aa6576000816000905550600101610a8e565b5090565b90565b610acf91905b80821115610acb576000816000905550600101610ab3565b5090565b905600a165627a7a7230582037e7ae4ce6d1cd94e24d4dcfc0edfb51cad7cd57f4625fe3756f6fbe7ce2001d0029",
  "source": "pragma solidity ^0.4.23;\n\ncontract Certifier {\n    address public owner;\n    mapping(bytes32 => Course) public courses;\n\n    struct Course {\n        string name;\n        uint  cost;\n        uint duration;\n        uint threshold;\n        bytes32[] codes;\n        mapping(address => Student) students;\n    }\n\n    struct Student {\n        string fname;\n        string lname;\n        uint age;\n        string email;\n        bytes32[] codes;\n    }\n\n    constructor() public {\n        owner = msg.sender;\n    }\n\n    modifier restricted() {\n        require (msg.sender == owner) ;\n        _;\n    }\n\n    function addCourse(\n        bytes32 _code,\n        string _name,\n        uint  _cost,\n        uint _duration,\n        uint _threshold,\n        bytes32[] _codes) public restricted {\n            courses[_code] = Course({\n                name: _name,\n                cost: _cost,\n                duration: _duration,\n                threshold: _threshold,\n                codes: _codes\n        });\n    }\n\n    function getCourse(bytes32 _code) public restricted view returns(string, uint, uint, uint, bytes32[]){\n        Course storage course = courses[_code];\n        return(course.name, course.cost, course.duration, course.threshold, course.codes);\n    }\n\n    function subscribe(\n        bytes32 _code,\n        string _fname,\n        string _lname,\n        uint _age,\n        string _email\n    ) public payable{\n        require(msg.value == 3 ether, \"You haven't sent exactly 3 ether\" );\n        Course storage course = courses[_code];\n        course.students[msg.sender] = Student({\n            fname: _fname,\n            lname: _lname,\n            age: _age,\n            email: _email,\n            codes: new bytes32[](0)\n        });\n    }\n}\n",
  "sourcePath": "/home/andrescajamarca/blockchain_course/certifier/contracts/Certifier.sol",
  "compiler": {
    "name": "solc",
    "version": "0.4.24+commit.e67f0147.Emscripten.clang"
  },
  "schemaVersion": "2.0.1",
  "updatedAt": "2018-10-06T21:07:25.953Z"
}